:100000000C9406010C9423010C9423010C942301FD
:100010000C9423010C9423010C9423010C942301D0
:100020000C9423010C9423010C9423010C942301C0
:100030000C9423010C94A6070C94B2060C94230193
:100040000C9423010C9423010C9423010C942301A0
:100050000C94A51D0C94EE1D0C9423010C9423010B
:100060000C94201D0C9423010C9423010C94230167
:10007000727320007273204E256C64204578706581
:100080006374656420636865636B73756D202564B4
:100090000A000A006F6B200073746172740A6F6B40
:1000A0000A005125642F256425630054656D702076
:1000B00061636869657665640A000100240D1500B6
:1000C0003105290050043D00DB0351008D0365001C
:1000D0005303790025038D00FF02A100DE02B50065
:1000E000C202C900A802DD009202F1007D024101B6
:1000F00037027D010C02450296010D0323017103B5
:10010000DB00D5035D00F203010020423A25752E85
:100110002575000A543A25752E257500453A20426A
:100120006164204D2D636F6465202564004649524B
:100130004D574152455F4E414D453A546561637597
:1001400070204649524D574152455F55524C3A68CE
:10015000747470252533412F2F6769746875622E7A
:10016000636F6D2F747269666669642F546561638D
:1001700075705F4669726D776172652F2050524FBE
:10018000544F434F4C5F56455253494F4E3A312ED0
:1001900030204D414348494E455F545950453A4DF2
:1001A000656E64656C2045585452554445525F4312
:1001B0004F554E543A25642054454D505F53454E9B
:1001C000534F525F434F554E543A256420484541A2
:1001D0005445525F434F554E543A256400583A25D2
:1001E0006C712C593A256C712C5A3A256C712C453E
:1001F0003A256C712C463A256C6400453A204261E0
:100200006420472D636F64652025640011241FBEA0
:10021000CFEFD0E1DEBFCDBF11E0A0E0B1E0EEE571
:10022000FFE302C005900D92AA34B107D9F715E09B
:10023000AAE4B1E001C01D92A436B107E1F70E9423
:1002400070050C94AD1F0C9400005F926F927F922A
:100250008F929F92AF92BF92CF92DF92EF92FF92D6
:100260000F931F93CF93DF93EC015A016B016880CA
:1002700079808A809B805C808FE7582209F05A94AD
:10028000222369F1C601B50128EE33E040E050E0D9
:100290000E94391FCA01B901A40193010E941A1FCB
:1002A0007B018C01C601B50128EE33E040E050E04F
:1002B0000E94391FA40193010E941A1F6C507E4FA7
:1002C0008F4F9F4F28EE33E040E050E00E94391FEF
:1002D000C901DA01E80EF91E0A1F1B1F08C0C6017A
:1002E000B501A40193010E941A1F7B018C015520C6
:1002F000E1F0E52DF0E0EE0FFF1FEE0FFF1FEF5DC9
:10030000FE4F2081318142815381CA01B901969506
:100310008795779567956E0D7F1D801F911F0E94B1
:10032000391FC901DA017C018D018C8187FF08C06A
:1003300022273327A9012E193F09400B510B02C078
:10034000A8019701B901CA01DF91CF911F910F91C7
:10035000FF90EF90DF90CF90BF90AF909F908F90E5
:100360007F906F905F9008951F93182F81568A3168
:1003700008F41F7D90915604992309F4A7C1812F99
:1003800081548A3138F01A3229F01A3019F01D30B0
:1003900009F09CC1903509F448C19135A0F4973417
:1003A00019F1983450F4953409F4AEC0963408F03D
:1003B000D7C09A3209F07EC169C19D34D1F09E3414
:1003C00009F078C14BC19835C9F0993538F49335A7
:1003D00009F4F2C0943509F06DC13BC19935D1F1F2
:1003E0009A3509F067C164C06091710160934C0156
:1003F00058C16091710160934D0153C180914B01CF
:1004000087FF0AC081E791E040E85DE361E070E0CA
:1004100020E00E94250109C081E791E040E054ED11
:1004200060E370E021E00E94250160934E0170932B
:100430004F0180935001909351018091630487FF95
:1004400039C160914E0170914F018091500190919E
:1004500051012BC080914B0187FF0AC081E791E0D9
:1004600040E85DE361E070E020E00E94250109C002
:1004700081E791E040E054ED60E370E021E00E940C
:10048000250160935201709353018093540190931E
:1004900055018091630487FF0DC1609152017091F5
:1004A000530180915401909155010E94BB1C02C1DF
:1004B00080914B0187FF0AC081E791E048EF51E04E
:1004C00061E070E020E00E94250109C081E791E031
:1004D00040E45CEA67E270E021E00E94250160935D
:1004E0005601709357018093580190935901809160
:1004F000630487FFDFC060915601709157018091BE
:10050000580190915901D1CF80914B0187FF0AC0CA
:1005100081E791E044EE5DE060E070E020E00E9461
:10052000250109C081E791E040EE52E262E070E00F
:1005300021E00E94250160935A0170935B01809332
:100540005C0190935D018091630487FFB3C060916B
:100550005A0170915B0180915C0190915D01A8C08E
:1005600080914B0187FF0AC081E791E048E353E6A1
:1005700060E070E021E00E94250109C081E791E080
:1005800041E050E060E070E020E00E9425016093CF
:100590005E0170935F01809360019093610180918F
:1005A000630487FF87C060915E0170915F01809155
:1005B0006001909161017CC080914D01883621F0ED
:1005C0008D3611F08C3851F481E791E044E050E031
:1005D00060E070E020E00E94250116C08258833060
:1005E00050F481E791E040E054E060E070E020E00A
:1005F0000E94250109C081E791E041E050E060E000
:1006000070E020E00E942501709363016093620115
:100610008091630487FF4EC0609162017091630115
:10062000882777FD8095982F43C081E791E041E0CE
:1006300050E060E070E020E00E9425019B01709393
:100640006501609364018091630487FF33C0B90141
:100650002DC0609171016093660123C081E791E034
:1006600041E050E060E070E020E00E942501282F8A
:1006700060936701709368018093690190936A01A8
:100680008091630487FF16C0822F12C081E791E03A
:1006900041E050E060E070E020E00E9425016093BE
:1006A0006F018091630487FF05C070E080E090E0F7
:1006B0000E94761C109256041092710110927201E1
:1006C00010927301109274011092750190914B0178
:1006D000892F807309F006C1812F81548A3110F06F
:1006E0001A3249F4109356048091630487FF03C0C3
:1006F000812F0E946F1E1E3409F469C01F3400F55B
:10070000153409F44EC0163498F41D3209F471C042
:100710001E3238F4183209F466C01A3209F07EC06D
:100720005AC01E3209F471C01B3309F077C057C09C
:100730001734C9F01734C8F11D3409F06FC01CC05C
:10074000143509F440C0153530F41035C1F11335B6
:1007500009F064C02EC01935E1F01A35F1F01835F2
:1007600009F05CC012C080914A0181608D7F809346
:100770004A0110924D01BDC080914A0182608E7F76
:1007800080934A0110924C01B4C080914A01846068
:1007900013C080914A0188600FC080914A01806136
:1007A0000BC080914A01806207C080914A01806439
:1007B00003C080914A01806880934A019AC0809169
:1007C0004B01816013C080914B0182600FC080910A
:1007D0004B0184600BC080914B01886007C0809101
:1007E0004B01806103C080914B01806280934B017B
:1007F00080C080E88093750110927101109272019F
:10080000109273011092740174C090917501892F38
:100810008F7709F06EC09078916061C0812F80530E
:100820008A3008F066C0809175018F7790E0049758
:100830000CF05FC080914B0187FD0EC0809171016B
:1008400090917201A0917301B09174018B509E4FF1
:10085000AF40B04078F04DC080917101909172012D
:10086000A0917301B09174018B509E47A040B0409D
:1008700008F03FC08091710190917201A0917301C5
:10088000B09174019C01AD0173E0220F331F441F2E
:10089000551F7A95D1F7880F991FAA1FBB1F280FE4
:1008A000391F4A1F5B1F812F90E0C097AA2797FD31
:1008B000A095BA2F280F391F4A1F5B1F2093710183
:1008C00030937201409373015093740190917501BC
:1008D000892F8F7771F08F5F8F779078982B909317
:1008E000750107C095FF05C0193219F49F7D9093DB
:1008F0004B0180914B0183FD05C0809170018127E0
:10090000809370011A3019F01D3009F08FC080916A
:10091000630487FF03C0812F0E946F1E2091700126
:1009200080916F01281721F080914B0183FD22C037
:1009300084E990E00E949E1E0E94C81682E990E021
:100940000E949E1E80914B0182FF3FC080916701F3
:1009500090916801A0916901B0916A010196A11D71
:10096000B11D80936B0190936C01A0936D01B093C6
:100970006E012BC08DB79EB708970FB6F8949EBF37
:100980000FBE8DBFEDB7FEB7319684E790E0ADB7EF
:10099000BEB712969C938E93119780916B019091A4
:1009A0006C01A0916D01B0916E0182839383A48349
:1009B000B583268317820E948B058DB79EB7089654
:1009C0000FB6F8949EBF0FBE8DBF109270011092AB
:1009D0006F0180914B01982F907C90934B0191E097
:1009E00090934A0190934C0186FF18C010925601D3
:1009F0001092570110925801109259011092520111
:100A000010925301109254011092550110924E0110
:100A100010924F01109250011092510110925A0100
:100A200010925B0110925C0110925D011F9108957C
:100A300085E88093640080E880BF43983B9A4298A1
:100A40003A9A47983F9A46983E9A15980D9A169862
:100A50000E9A13980B9A14980C9A179A0F9A93E07F
:100A600094BD81E085BD10926E0017BC18BC9093B8
:100A7000B0008093B100109270001092B3001092F9
:100A8000B40008950E94911D0E9418050E94FA0664
:100A90000E94E81583E290E0A0E0B0E080935E0160
:100AA00090935F01A0936001B093610180932E0445
:100AB00090932F04A0933004B093310480934204A8
:100AC00090934304A0934404B09345040E94081DEE
:100AD0000E94F311789488E990E00E949E1E089588
:100AE0000E9442050E94361E882381F00E9437082A
:100AF000882361F40E943D1E0E94B40107C00E9439
:100B0000A10680915A048E7F80935A0480915A04E2
:100B100080FFE8CFF4CFAF92BF92CF92DF92EF92F7
:100B2000FF920F931F93DF93CF93CDB7DEB79FE074
:100B3000E92EF12CEC0EFD1E8D859E85FC015F01DA
:100B400000E093C0002309F487C0813709F474C022
:100B5000823740F4843649F18C3669F0833609F0E7
:100B600077C03BC0853759F0883709F43FC08337D9
:100B700009F06EC002C004E075C001E073C004302B
:100B800049F487010C5F1F4FF701608171818281F9
:100B9000938108C087010E5F1F4FF701608171814B
:100BA00080E090E00E94761C1FC0043049F4870169
:100BB0000C5F1F4FF70160817181828193810AC0B0
:100BC00087010E5F1F4FF70160817181882777FDD4
:100BD0008095982F0E94BB1C07C087010E5F1F4F96
:100BE000F70180810E946F1E780134C0809103015B
:100BF000909104010E949E1E043059F487010C5FFD
:100C00001F4FF70160817181828193810E94F61CE0
:100C1000EBCF82E0C82ED12CCE0CDF1C013029F4A2
:100C2000F70180810E94E01C05C0F701808191815D
:100C30000E94EC1C76010EC087010C5F1F4FF7016C
:100C4000608171818281938143E00E94561CCCCFE8
:100C50000E946F1E00E006C0853211F402E002C05F
:100C60000E946F1E0894A11CB11CF5018491882379
:100C700009F068CFCF91DF911F910F91FF90EF9016
:100C8000DF90CF90BF90AF9008952EEE3FEF07C05A
:100C9000F9013197F1F76F5F7F4F804090406030EE
:100CA00040E0740741E0840740E0940788F7615012
:100CB000704041F0CB01880F991F880F991F029750
:100CC0000197F1F7089526E937EF07C0F901319749
:100CD000F1F76154704080409040623471058105A5
:100CE0009105A0F728EE33E040E050E00E941A1F83
:100CF0006150704041F0CB01880F991F880F991FF8
:100D000002970197F1F7089580915D04893718F0F3
:100D10000E94F11111C00E941F15882369F0809173
:100D20005D048F5F80935D0407C0809163048091B0
:100D30005A048B7F80935A0480915A0482FDF5CF28
:100D400008950E94861207C00E94840680915A046A
:100D50008D7F80935A0480915A0481FDF5CF0E94C3
:100D6000EA0C08951F920F920FB60F9211248F93E1
:100D70009F9380918A0090918B00805C9346909322
:100D80008B0080938A0090915704892F8E5F809307
:100D900057048A3040F198509093570480915A0438
:100DA000816080935A0490915804892F8F5F8093BB
:100DB00058048931C0F098519093580480915A0496
:100DC000826080935A0490915904892F8F5F809399
:100DD0005904843040F093509093590480915A0400
:100DE000846080935A049F918F910F900FBE0F9053
:100DF0001F90189510928000E1E8F0E080818160FA
:100E0000808380E49CE990938B0080938A00EFE6D6
:100E1000F0E0808184608083089510926F000895CF
:100E20002F9AEFE6F0E080818D7F80830E94540945
:100E30002F9808951F93AB01BC011FB7F8948091C0
:100E40006F00846080936F00411551056105710545
:100E500009F46CC0413151056105710518F40E9417
:100E6000100771C02091880030918900809164043E
:100E700090916504A0916604B09167040097A10564
:100E8000B10521F4209184003091850040936404E1
:100E900050936504609366047093670480916404C2
:100EA00090916504A0916604B091670480509040D1
:100EB000A140B04058F48091640490916504A091E1
:100EC0006604B0916704280F391F28C0809164041C
:100ED00090916504A0916604B09167048051974297
:100EE000A140B040D8F4205137423093890020937C
:100EF00088008091640490916504A0916604B0918B
:100F00006704805F984DAF4FBF4F80936404909308
:100F10006504A0936604B093670404C0309389000D
:100F20002093880080916F0082600BC0109264044F
:100F300010926504109266041092670480916F000D
:100F40008D7F80936F001FBF1F9108951F920F9296
:100F50000FB60F9211242F933F934F935F936F938C
:100F60007F938F939F93AF93BF93EF93FF93809162
:100F7000640490916504A0916604B0916704805068
:100F80009040A140B04018F40E9410075FC08091CB
:100F9000640490916504A0916604B0916704805048
:100FA0009040A140B0408093640490936504A09366
:100FB0006604B09367048091640490916504A091E5
:100FC0006604B091670480509040A140B04098F40E
:100FD000209188003091890080916404909165048B
:100FE000A0916604B0916704280F391F30938900DF
:100FF000209388002BC08091640490916504A09197
:101000006604B091670480519742A140B040F0F46B
:101010008091880090918900805197429093890037
:10102000809388008091640490916504A091660487
:10103000B0916704805F984DAF4FBF4F80936404B9
:1010400090936504A0936604B0936704FF91EF91B9
:10105000BF91AF919F918F917F916F915F914F91D0
:101060003F912F910F900FBE0F901F901895809178
:101070005C0490E0019720915B04821B91098770CA
:101080009070892B11F080E008958FEF08954FB78D
:10109000F89480915B0480935C0490E025E530E057
:1010A000829FF001839FF00D929FF00D1124E6576F
:1010B000FE4F80818D7F80834FBF0895CF93DF9354
:1010C000C5E5D0E00BC00E94A10680915A048E7F36
:1010D00080935A0480915A0480FDF5CF90915C046E
:1010E00080915B049817B1F7892F90E08C9FF001F5
:1010F0008D9FF00D9C9FF00D1124E657FE4F8081CF
:1011000081FDE8CFDF91CF910895EF92FF920F9389
:101110001F93CF93DF9320915C0480915B04281789
:10112000B1F430E085E590E0289FF001299FF00DB3
:10113000389FF00D1124E657FE4F808181FD07C0D6
:1011400060E070E080E090E00E941A074BC035E557
:10115000E32EF12C05E510915C041F5F1770C12F81
:10116000D0E0CE9DF001CF9DF00DDE9DF00D11245D
:10117000DF01A657BE4F8C9183FF0FC082608C9316
:10118000E154FE4F6081718182819381672F782FB6
:10119000892F99270E941A0707C0109FC0011124A8
:1011A0008A589E4F0E94B20C10935C0480915B049D
:1011B000181761F4CE9DF001CF9DF00DDE9DF00D6E
:1011C0001124E657FE4F808181FF0CC0CE9DF001B7
:1011D000CF9DF00DDE9DF00D1124E657FE4F80816E
:1011E00081FFB9CFDF91CF911F910F91FF90EF90C9
:1011F00008951F93CF93DF93EC0120915B048091BE
:101200005C0490E00197821B910987709070892B94
:1012100039F460E47DE083E090E00E944506EDCF84
:10122000122F1F5F1770209751F085E5189FC0019E
:1012300011248A589E4FBE010E94670D1CC0212FA9
:1012400030E085E590E0289FF001299FF00D389F60
:10125000F00D1124DF01A657BE4F8C9188608E7F60
:101260008C93E154FE4F80E09FEFAFEFBFEF8083A0
:101270009183A283B38310935B0480915C0490E01C
:1012800025E530E0829FF001839FF00D929FF00DE5
:101290001124E657FE4F808181FD02C00E9485081F
:1012A000DF91CF911F910895CF93DF9340915C041C
:1012B000842F90E0C5E5D0E08C9F90018D9F300D8C
:1012C0009C9F300D1124F901E657FE4FE081E1FFAC
:1012D0002FC0E3FF25C0F901E154FE4F6081718109
:1012E00082819381672F782F892F99270E941A076F
:1012F0000E94F4118823E1F080915C0490E08C9FBF
:10130000F0018D9FF00D9C9FF00D1124E657FE4FCC
:101310008081857F80838BEA90E00E949E1E08C0BA
:1013200085E5489FC00111248A589E4F0E94CA0A31
:1013300080915C0490E025E530E0829FF001839F7E
:10134000F00D929FF00D1124E657FE4F808181FD34
:1013500002C00E948508DF91CF9108956F927F921D
:101360008F929F92AF92BF92CF92DF92EF92FF92B5
:101370000F931F93621773078407950728F059018D
:101380006A013B014C0104C05B016C0139014A0157
:10139000C601B50129EB31E040E050E00E941A1F80
:1013A0007B018C01C401B3012FEE33E040E050E03B
:1013B0000E941A1FE60EF71E081F191F94E0AA0CC0
:1013C000BB1CCC1CDD1C9A95D1F76A147B048C04E1
:1013D0009D0460F4C401B30128E230E040E050E035
:1013E0000E941A1FE61AF70A080B190BA8019701A9
:1013F00020503E4F4F4F5F4F8AE0569547953795A7
:1014000027958A95D1F7B901CA011F910F91FF90D5
:10141000EF90DF90CF90BF90AF909F908F907F9094
:101420006F9008952F923F924F925F926F927F92AA
:101430008F929F92AF92BF92CF92DF92EF92FF92E4
:101440000F931F93621773078407950728F01B01FA
:101450002C0139014A0104C019012A013B014C0148
:10146000E214F3040405150538F464015301420144
:101470003101170128010CC0E614F704080519050D
:1014800018F05701680104C0640153013701480195
:10149000C401B30123E533E040E050E00E941A1F8D
:1014A0007B018C01C601B5012CE533E040E050E042
:1014B0000E941A1FE60EF71E081F191FC201B10174
:1014C00028E032E040E050E00E941A1FE60EF71ECE
:1014D000081F191FD401C301880F991FAA1FBB1F22
:1014E000A816B906CA06DB0660F4C601B50126E2F5
:1014F00031E040E050E00E941A1FE61AF70A080B9C
:10150000190B72E0220C331C441C551C7A95D1F740
:10151000A214B304C404D50460F4C601B50121E7E4
:1015200030E040E050E00E941A1FE61AF70A080B6C
:10153000190B621473048404950460F4C401B301AC
:1015400028E230E040E050E00E941A1FE61AF70A55
:10155000080B190BA801970120503E4F4F4F5F4FCA
:101560006AE056954795379527956A95D1F7B90161
:10157000CA011F910F91FF90EF90DF90CF90BF9025
:10158000AF909F908F907F906F905F904F903F9023
:101590002F9008957F928F929F92AF92BF92CF9299
:1015A000DF92EF92FF920F931F93CF93DF93EC01A3
:1015B0008DA99EA9AFA9B8AD0097A105B105A9F164
:1015C0008DA19EA1AFA1B8A52D893E894F89588DC7
:1015D000821B930BA40BB50B8DA39EA3AFA3B8A73F
:1015E000B7FF23C0439A8DA99EA9AFA9B8AD0197B3
:1015F000A109B1098DAB9EABAFABB8AF8DA19EA1D8
:10160000AFA1B8A5CB5BDF4F288139814A815B81CF
:10161000C554D040820F931FA41FB51F8DA39EA356
:10162000AFA3B8A77724739401C0772489AD9AAD8E
:10163000ABADBCAD0097A105B105A1F189A59AA5F7
:10164000ABA5BCA5298D3A8D4B8D5C8D821B930B70
:10165000A40BB50B89A79AA7ABA7BCA7B7FF22C05D
:10166000479A89AD9AADABADBCAD0197A109B1095F
:1016700089AF9AAFABAFBCAF89A59AA5ABA5BCA506
:10168000CB5BDF4F288139814A815B81C554D040D3
:10169000820F931FA41FB51F89A79AA7ABA7BCA74A
:1016A00077247394FE01FD9680819181A281B3819C
:1016B0000097A105B105A1F18DA59EA5AFA5B8A97B
:1016C0002D8D3E8D4F8D58A1821B930BA40BB50B16
:1016D0008DA79EA7AFA7B8ABB7FF22C0159A808190
:1016E0009181A281B3810197A109B109808391837E
:1016F000A283B3838DA59EA5AFA5B8A9CB5BDF4F11
:10170000288139814A815B81C554D040820F931F63
:10171000A41FB51F8DA79EA7AFA7B8AB772473945E
:10172000FE01EF5BFF4F80819181A281B381009721
:10173000A105B105A1F189A99AA9ABA9BCA929A1C3
:101740003AA14BA15CA1821B930BA40BB50B89ABF7
:101750009AABABABBCABB7FF22C0139A808191812F
:10176000A281B3810197A109B10980839183A283EA
:10177000B38389A99AA9ABA9BCA9CB5BDF4F288108
:1017800039814A815B81C554D040820F931FA41FC9
:10179000B51F89AB9AABABABBCAB772473948C8988
:1017A00082FF80C0CF5ADF4F88809980AA80BB809B
:1017B000C155D040181419041A041B04ACF4FE01DE
:1017C000E75BFF4FC35BDF4F208131814281538153
:1017D00088819981AA81BB81CD54D040821793071B
:1017E000A407B507D8F046C081149104A104B10440
:1017F00009F440C0FE01E75BFF4FC35BDF4F208170
:1018000031814281538188819981AA81BB81CD54E4
:10181000D040281739074A075B0760F539E4C32E23
:10182000D12CCC0EDD1EF601E080F1800281138107
:10183000C801B701660F771F881F991FA501940182
:101840000E945B1FE21AF30A040B150BF601E082FB
:10185000F18202831383FE01EF5AFF4F8081918151
:10186000A281B3810496A11DB11D80839183A283BF
:10187000B38318C0C35BDF4F288139814A815B8104
:10188000CD54D040FE01E75BFF4F80819181A28162
:10189000B38182179307A407B50721F02083318312
:1018A00042835383772019F010925D043DC08DA9C7
:1018B0009EA9AFA9B8AD0097A105B105A9F589AD5D
:1018C0009AADABADBCAD0097A105B10569F5ED963C
:1018D00088819981AA81BB81ED970097A105B10507
:1018E00019F5CF5BDF4F88819981AA81BB81C154F3
:1018F000D0400097A105B105B9F48C898D7F8C8B00
:1019000010923E0410923F04109240041092410441
:1019100088899989AA89BB8980934204909343045A
:10192000A0934404B0934504C75BDF4F688179817D
:101930008A819B81672F782F892F99270E941A0708
:101940004398479815981398DF91CF911F910F9165
:10195000FF90EF90DF90CF90BF90AF909F908F90CF
:101960007F900895FC01848980FF0DC08089918952
:10197000A289B3898093420490934304A0934404C2
:10198000B0934504089510925D04848984FF02C0D9
:10199000429A01C0429885FF02C0469A01C046980B
:1019A00086FF02C0169A01C0169887FD02C0149ADD
:1019B00001C0149884898260848BE75BFF4F60814B
:1019C000718182819381672F782F892F99270E94B7
:1019D0001A070895EF92FF920F931F9390915C0462
:1019E00085E5989FF0011124EA58FE4F648961FF54
:1019F00069C080819181A281B38125A936A947A9B7
:101A000050AD64FF05C0821B930BA40BB50B04C043
:101A1000820F931FA41FB51F809332049093330449
:101A2000A0933404B09335048489248135814681A0
:101A30005781E1ACF2AC03AD14AD85FF05C02E19A2
:101A40003F09400B510B04C02E0D3F1D401F511F7D
:101A5000209336043093370440933804509339046C
:101A60008489DF01DD96208531854285538586FF97
:101A70000AC08D919D910D90BC91A02D281B390B12
:101A80004A0B5B0B09C08D919D910D90BC91A02DCF
:101A9000280F391F4A1F5B1F20933A0430933B04E1
:101AA00040933C0450933D04EF5BFF4F8081918154
:101AB000A281B38180933E0490933F04A09340049D
:101AC000B09341041F910F91FF90EF9008952F92D2
:101AD0003F924F925F926F927F928F929F92AF92BE
:101AE000BF92CF92DF92EF92FF920F931F93DF93FB
:101AF000CF9300D000D0CDB7DEB79C838B837A83A1
:101B00006983FC01148A80916304AB81BC812981C3
:101B10003A8184E1F90101909F010D928150D1F742
:101B2000E981FA81208131814281538180911E04B3
:101B300090911F04A0912004B0912104281B390B1F
:101B40004A0B5B0B57FF07C0509540953095219588
:101B50003F4F4F4F5F4FEB81FC81258B368B478B7F
:101B6000508F25AB36AB47AB50AFE0902204F090DE
:101B700023040091240410912504E981FA818481D1
:101B80009581A681B7818E199F09A00BB10BB7FF74
:101B900007C0B095A095909581959F4FAF4FBF4FCF
:101BA000EB81FC81818F928FA38FB48F81AF92AF35
:101BB000A3AFB4AF609026047090270480902804EF
:101BC00090902904E981FA8180859185A285B38569
:101BD00086199709A809B909B7FF07C0B095A0955C
:101BE000909581959F4FAF4FBF4FEB81FC81858FC3
:101BF000968FA78FB0A3FD9680839183A283B38332
:101C0000FD97FC83EB83A0902A04B0902B04C09036
:101C10002C04D0902D04E981FA8184859585A685D0
:101C2000B7858A199B09AC09BD09B7FF07C0B095F4
:101C3000A095909581959F4FAF4FBF4FEB81FC8151
:101C400081A392A3A3A3B4A3EF5BFF4F80839183EF
:101C5000A283B383E154F040FC83EB8360E0E9812D
:101C6000FA81208131814281538180911E049091BB
:101C70001F04A0912004B0912104281739074A07B6
:101C80005B070CF061E06295607FEB81FC818489E9
:101C90008F7E862B848B20E0E981FA818481958177
:101CA000A681B7818E159F05A007B1070CF021E032
:101CB0002295220F207EEB81FC8184898F7D822BEF
:101CC000848B20E0E981FA8180859185A285B385A6
:101CD00086159705A805B9050CF021E02295220F7D
:101CE000220F207CEB81FC8184898F7B822B848B6B
:101CF00020E0E981FA8184859585A685B7858A15D6
:101D00009B05AC05BD050CF021E027952227279502
:101D1000EB81FC8184898F77822B848B8091630493
:101D200085899689A789B08DBF016B5B7F4FFB01C9
:101D300080839183A283B383EB81FC81218D328DDB
:101D4000438D548D82179307A407B50728F4FB0130
:101D50002083318342835383EB81FC81258D368D33
:101D6000478D50A1EB5BFF4F80819181A281B381B0
:101D700082179307A407B50720F420833183428399
:101D80005383EB81FC8121A132A143A154A1EB5BE0
:101D9000FF4F80819181A281B38182179307A407AD
:101DA000B50720F4208331834283538380916304F9
:101DB0002B813C812B5B3F4FF90180819181A28176
:101DC000B381E554F040FC83EB830097A105B10596
:101DD00019F484898160D8C210925D045F98579A83
:101DE00017980F9AEB81FC81E58CF68C078D10A17A
:101DF000258936894789508DE114F10401051105C3
:101E000009F079C0CA01B90128EE33E040E050E0A2
:101E10000E941A1F20E83CE040E050E00E94391F79
:101E2000A52ED22EC32EB42E8D2D9C2DAB2DB52FCD
:101E30003C014D01EB81FC81618D728D838D948D10
:101E400028EE33E040E050E00E941A1F20E83CE01A
:101E500040E050E00E94391FC901DA017C018D0188
:101E60006E147F048006910650F0370148012D2D35
:101E70003C2D4B2D5A2DC901DA017C018D01C40185
:101E8000B30129EB31E040E050E00E941A1F5B01F2
:101E90006C01C801B7012FEE33E040E050E00E9432
:101EA0001A1FA60EB71EC81ED91E84E0660C771C2A
:101EB000881C991C8A95D1F7E614F70408051905C2
:101EC00060F4C801B70128E230E040E050E00E9431
:101ED0001A1FA61AB70AC80AD90AA60195012050E6
:101EE0003E4F4F4F5F4F0AE05695479537952795E0
:101EF0000A95D1F75EC02115310541055105E9F478
:101F0000EB81FC81818D928DA38DB48D0097A1050D
:101F1000B10599F4C801B70128EE33E040E050E084
:101F20000E941A1F28E23AE040E050E00E94391F68
:101F3000C901DA019C01AD013CC0CA01B90128EE1A
:101F400033E040E050E00E941A1F20E83CE040E00F
:101F500050E00E94391F39014A01EB81FC81618DFB
:101F6000728D838D948D28EE33E040E050E00E9426
:101F70001A1F20E83CE040E050E00E94391F590160
:101F80006A01C801B70128EE33E040E050E00E944A
:101F90001A1F28E23AE040E050E00E94391F790120
:101FA0008A01C401B301A60195010E94120A9B0196
:101FB000AC012230310541055105B0F4EB81FC81C3
:101FC00061A172A183A194A128EE33E040E050E02A
:101FD0000E941A1F2CE830E040E050E00E94391FB8
:101FE000C901DA019C01AD01809163046B817C81A0
:101FF0006B5B7F4FFB016080718082809380E55432
:10200000F040FC83EB83D401C301B695A795979567
:102010008795B095A095909581959F4FAF4FBF4FF5
:1020200081AB92ABA3ABB4AB85A796A7A7A7B0AB88
:1020300081A792A7A3A7B4A785A396A3A7A3B0A798
:10204000CA01B90120E639E040E050E00E941A1FC1
:10205000A40193010E94391FCA01B90124EF31E0A4
:1020600040E050E00E941A1F1B012C0160E070E06C
:1020700080E090E0A40193010E94391FCA01B901D8
:1020800024EF31E040E050E00E941A1F7B018C01F8
:102090002AE030E040E050E00E94391FAA24B22E2E
:1020A000C32ED42EC801B70123E430E040E050E055
:1020B0000E94391F542F432F322F2227A216B30616
:1020C000C406D50610F459016A01EB81FC8161A1B7
:1020D00072A183A194A120EA31E440E050E00E9483
:1020E0001A1FA40193010E94391FCA01B90124EFEC
:1020F00031E040E050E00E941A1F28EC30E040E060
:1021000050E00E94391F542F432F322F222786017F
:102110007501A216B306C406D50610F479018A012A
:1021200020912E0430912F044091300450913104BD
:10213000C201B1010E94391F542F432F322F222791
:10214000EB81FC81E75BFF4F208331834283538324
:102150002E153F054007510720F4E082F1820283EB
:102160001383E981FA812089318942895389C20127
:10217000B1010E94391F542F432F322F2227EB81A8
:10218000FC81E35BFF4F20833183428353832E1511
:102190003F054007510720F4E082F1820283138358
:1021A00080916304EB81FC81E75BFF4F2B813C81D5
:1021B000235B3F4F3C832B832081318142815381BC
:1021C000EB81FC8180819181A281B381ED54F0404B
:1021D000FC83EB83281739074A075B0709F4D0C053
:1021E00020912E0430912F044091300450913104FD
:1021F000B2E05695479537952795BA95D1F7E9817D
:10220000FA81E088F18802891389A2E01695079582
:10221000F794E794AA95D1F7CA01B9010E941A1F51
:102220005B016C01C801B701A80197010E941A1F48
:102230006A197B098C099D0924E030E040E050E0F8
:102240000E945B1F722E632E542E452E20E030E03C
:1022500040E050E87FE1DA01C9018A219B21AC21ED
:10226000BD210097A105B10539F4715029F05695AB
:10227000479537952795EFCF2B813C812B5B3F4FBF
:10228000F901E080F18002811381E554F040FC8384
:10229000EB8320E030E040E050E86FE1DA01C90173
:1022A0008E219F21A023B1230097A105B10539F408
:1022B000615029F05695479537952795EFCF872F91
:1022C00090E0860F911D4F971CF5809163042B8140
:1022D0003C812F5A3F4F3C832B83C601B501A80197
:1022E00097010E941A1F272D362D452D542D0E942F
:1022F0005B1F2F5F3F4F4F4F5F4FEB81FC81208370
:10230000318342835383E155F040FC83EB8331C03A
:1023100051E5852E912C2B813C81820E931E6717EF
:1023200078F080916304C801B701272D362D452D23
:10233000542D0E945B1FCA01B901A60195010EC070
:1023400080916304C601B501272D362D452D542DEE
:102350000E945B1FCA01B901A80197010E941A1FC0
:102360006F5F7F4F8F4F9F4FF40160837183828334
:10237000938380916304EB81FC818489846004C031
:10238000EB81FC8184898B7F848B80916304AEE137
:10239000B4E029813A8184E1F90101909F010D9215
:1023A0008150D1F710922A0410922B0410922C0421
:1023B00010922D040F900F900F900F90CF91DF91FE
:1023C0001F910F91FF90EF90DF90CF90BF90AF9053
:1023D0009F908F907F906F905F904F903F902F9045
:1023E000089557980895089580916E0490916F0410
:1023F0008057974110F420E001C02FEF80917804BE
:10240000909179048057974108F420E0822F089535
:1024100082309105A8F4FC0133E0EE0FFF1F3A95DE
:10242000E1F7880F991FE80FF91FE859FB4F8481E6
:1024300095818617970721F075836483178216822A
:1024400008950F931F938230910508F05CC0FC0142
:10245000EE0FFF1FEE0FFF1FE80FF91FEE0FFF1F1C
:10246000E659FB4F2081318100D000D000D0EDB77C
:10247000FEB7319683E191E0ADB7BEB712969C935B
:102480008E931197C9019695879596958795938315
:1024900082832370307009E110E0209FC001219FEA
:1024A000900D309F900D1124848315820E948B051E
:1024B0002091740430917504EDB7FEB731968AE02F
:1024C00091E0ADB7BEB712969C938E931197C90158
:1024D0009695879596958795938382832370307020
:1024E000209FC001219F900D309F900D1124848367
:1024F00015820E948B058DB79EB706960FB6F8948D
:102500009EBF0FBE8DBF1F910F9108952F923F92D6
:102510004F925F926F927F928F929F92AF92BF92F3
:10252000CF92DF92EF92FF920F931F93DF93CF939F
:1025300000D000D000D0CDB7DEB7222433241A82D9
:102540001982F101EE0FFF1FD10113E0AA0FBB1F8B
:102550001A95E1F7AE0FBF1FA859BB4F18968D9182
:102560009C911997009731F0019719969C938E933F
:1025700018971FC1E20DF31D8F01000F111F0A5F95
:102580001E4FD8018D919C91892B19F020E030E0ED
:10259000A1C0EE0FFF1FE85FFE4F80810E94611D0A
:1025A0009C01F801F581FB8304E1F09FA001112457
:1025B000BA01660F771F660F771F62547F4F81E065
:1025C00090E08C83DC01A40FB51FFB0105911491F1
:1025D0001E830D832017310708F04EC060916304FD
:1025E0003901882499240197840F951F880F991F1A
:1025F000880F991FFC01E654FF4F45905490FD0150
:10260000EE0FFF1FEE0FFF1FE454FF4FA590B49095
:10261000FC01E454FF4F25913491B80180E090E033
:10262000661977098809990940E050E00E941A1F4D
:102630007B018C01C201A0E0B0E0681A790A8A0A25
:102640009B0ACC24DD24C401B301A60195010E949C
:102650001A1FE60EF71E081F191F2D813E8124192F
:1026600035093E832D8340E050E0C801B7010E9448
:10267000391F809163040AC0AC81AF5FAC836C5F8B
:102680007F4F01968431910509F09BCF80916304BF
:10269000BC81B43181F4EB818E2F90E000E510E035
:1026A000809FF001819FF00D909FF00D1124E85F55
:1026B000FE4F20813181F101EE0FFF1FC10143E088
:1026C000880F991F4A95E1F7E80FF91FE859FB4F6A
:1026D00011861086F101EE0FFF1FEE0FFF1FE20DB6
:1026E000F31DEE0FFF1FE659FB4F31832083D1010D
:1026F000AA0FBB1FC10113E0880F991F1A95E1F7BC
:10270000A80FB91FA859BB4F14968D919C9115978E
:10271000281B390B1FEF213D31078CF02033310589
:1027200074F416968D919C91179727E18037920744
:10273000A8F4019617969C938E9316970FC0F101FB
:10274000EE0FFF1FC10173E0880F991F7A95E1F723
:10275000E80FF91FE859FB4F178216829101220FEB
:10276000331FF901E20DF31DEE0FFF1FEA5FFE4F6D
:102770008381948183309105E0F4F101EE0FFF1F16
:10278000EE0FFF1FE20DF31DEE0FFF1FE659FB4F8B
:1027900040815181F10113E0EE0FFF1F1A95E1F71F
:1027A000E20FF31FE859FB4F24813581B1010E94EC
:1027B0003B140894211C311C49815A814F5F5F4FA3
:1027C0005A8349834230510509F0BBCE26960FB695
:1027D000F894DEBF0FBECDBFCF91DF911F910F9157
:1027E000FF90EF90DF90CF90BF90AF909F908F9031
:1027F0007F906F905F904F903F902F9008959C0135
:1028000083309105B8F584E190E0289FF001299F7D
:10281000F00D389FF00D1124E458FB4F638BF90144
:10282000EE0FFF1FEE0FFF1FE20FF31FEE5EFE4FD6
:10283000A381B481109711F06C930895A081B181A8
:10284000683060F02C9181E090E0028002C0880F37
:10285000991F0A94E2F7282B2C9308952C9181E07C
:1028600090E0028002C0880F991F0A94E2F78095D9
:1028700082238C9308958F929F92AF92BF92CF92B2
:10288000DF92EF92FF920F931F93CF93DF93EC01B0
:102890008330910508F0C6C06230710508F0C2C0EF
:1028A0004901841A950A84E190E0C89FD001C99F2C
:1028B000B00DD89FB00D1124A458BB4F52968C91E7
:1028C00052979E01220F331FFE0193E0EE0FFF1F70
:1028D0009A95E1F7E20FF31FE80FF11DEE0FFF1FCE
:1028E000E258FB4F518340838F5F877052968C93E1
:1028F00052976D917C911197680D791D11967C937B
:102900006E93F90113E0EE0FFF1F1A95E1F7E21B3A
:10291000F30BE854FB4F84859585861797071CF4C5
:102920008D939C9309C022273327281B390B6217EC
:10293000730714F42D933C9384E190E0C89F5001F9
:10294000C99FB00CD89FB00C11242CE734E0A20E24
:10295000B31EF50182899E01220F331FFE0173E031
:10296000EE0FFF1F7A95E1F7E20FF31FE80FF11D5D
:10297000EE0FFF1FE258FB4F60817181641B750BE6
:10298000882777FD8095982F690143E0CC0CDD1CEA
:102990004A95E1F7C21AD30A28EB34E0C20ED31EDF
:1029A000F60120853185428553850E941A1F7B01DF
:1029B0008C01F50160817181882777FD8095982FC2
:1029C000F60124813581468157810E941A1FE60E47
:1029D000F71E081F191FB401882777FD8095982FCF
:1029E000F60120813181428153810E941A1FE60E37
:1029F000F71E081F191FC801B70120E034E040E0AE
:102A000050E00E945B1FB901CA016F3F710581054B
:102A1000910519F014F06FEF02C097FD60E0CE0150
:102A20000E94FF13DF91CF911F910F91FF90EF90C4
:102A3000DF90CF90BF90AF909F908F90089580913E
:102A40008F04882351F48091A304882331F480916A
:102A5000B704882311F48FEF089580E00895833040
:102A6000910580F4880F991FFC01A3E0EE0FFF1F72
:102A7000AA95E1F7E81BF90BE854FB4F408351831B
:102A80006283738308958330910580F4880F991FC2
:102A9000FC0123E0EE0FFF1F2A95E1F7E81BF90B7D
:102AA000E854FB4F448355836683778308958330CE
:102AB000910580F4880F991FFC01A3E0EE0FFF1F22
:102AC000AA95E1F7E81BF90BE854FB4F40875187C3
:102AD0006287738708958330910570F4880F991F7A
:102AE000FC0123E0EE0FFF1F2A95E1F7E81BF90B2D
:102AF000E854FB4F558744870895AF92BF92CF9219
:102B0000DF92EF92FF920F931F93CF93DF93C0E07A
:102B1000D0E0AA24BB246E0134E0CC0CDD1C3A9535
:102B2000E1F77E01EE0CFF1C870193E0000F111FFF
:102B30009A95E1F70E191F0908541B4FF8014081BF
:102B4000518162817381C601805090400E94821F32
:102B5000C601F80144815581668177818C5F9F4F62
:102B60000E94821F83E0EE0CFF1C8A95E1F7F801BA
:102B70004085518562857385C701885F9F4F0E949C
:102B8000821FF80164857585C601845F9F4F0E948E
:102B90008A1FC8016EE070E00E946E1DBC01C60174
:102BA000825F9F4F0E948A1F21960894A11CB11C2E
:102BB000F3E0AF16B10409F0AECFDF91CF911F91D2
:102BC0000F91FF90EF90DF90CF90BF90AF9008955E
:102BD0002F923F924F925F926F927F928F929F922D
:102BE000AF92BF92CF92DF92EF92FF920F931F931B
:102BF000CF93DF93CC24DD24AA24BB24212C82E0B4
:102C0000382E412C512C612C00E6702E812C912CF9
:102C1000D601AA0FBB1FAA0FBB1FAC0DBD1DAE5E18
:102C2000BE4FED91FC911197908121E030E012961A
:102C30000C90129702C0220F331F0A94E2F7822FE2
:102C40008095892380838291822B80831396ED91D6
:102C5000FC911497309711F11082E834F10589F056
:102C6000E934F10520F4E734F105C1F407C0E33B92
:102C7000F10559F0E43BF10589F40BC084B5806897
:102C800002C084B5806284BD09C08091B0008068B4
:102C900003C08091B00080628093B0007601F4E0C0
:102CA000EE0CFF1CFA95E1F7C701805090400E949E
:102CB000761F8601000F111FE80153E0CC0FDD1FC6
:102CC0005A95E1F7C01BD10BC854DB4F6883798359
:102CD0008A839B83C7018C5F9F4F0E94761F6C8302
:102CE0007D838E839F8343E0000F111F4A95E1F798
:102CF000C801885F9F4F0E94761F688779878A87FF
:102D00009B87C701845F9F4F0E947C1F9D878C8794
:102D1000CE016EE070E00E946E1D8C01C701825FE3
:102D20009F4F0E947C1F08171907A1F080E090E2D6
:102D3000A0E0B0E088839983AA83BB832C823D8284
:102D40004E825F82688679868A869B86A0E8B1E09B
:102D5000BD87AC870894C11CD11C0894A11CB11C70
:102D6000B3E0AB16B10409F053CFDF91CF911F91BF
:102D70000F91FF90EF90DF90CF90BF90AF909F901A
:102D80008F907F906F905F904F903F902F9008951D
:102D9000EF92FF920F931F93DF93CF93CDB7DEB7E0
:102DA00064970FB6F894DEBF0FBECDBF80914B0184
:102DB00086FF54C080911E0490911F04A0912004AE
:102DC000B091210420914E0130914F01409150016A
:102DD00050915101820F931FA41FB51F80934E0184
:102DE00090934F01A0935001B09351018091220420
:102DF00090912304A0912404B091250420915201C4
:102E0000309153014091540150915501820F931F0D
:102E1000A41FB51F8093520190935301A0935401B6
:102E2000B09355018091260490912704A091280425
:102E3000B0912904209156013091570140915801D9
:102E400050915901820F931FA41FB51F8093560103
:102E500090935701A0935801B093590160914E018E
:102E600070914F0180915001909151010E94B71EC5
:102E700020E030E84BE358EC0E94B11E882364F454
:102E800080E092E1ADEFBFEF80934E0190934F0150
:102E9000A0935001B093510160914E0170914F0188
:102EA00080915001909151010E94B71E20E030E8BE
:102EB0004BE358E40E94161F181664F480E09EEE5F
:102EC000A2E0B0E080934E0190934F01A093500197
:102ED000B09351016091520170915301809154015E
:102EE000909155010E94B71E20E030E44CE958EC67
:102EF0000E94B11E882364F480E09EE1ABEFBFEF37
:102F00008093520190935301A0935401B0935501C3
:102F1000609152017091530180915401909155013B
:102F20000E94B71E20E030E44CE958E40E94161FCE
:102F3000181664F480E092EEA4E0B0E080935201B1
:102F400090935301A0935401B093550160915601A1
:102F50007091570180915801909159010E94B71EBC
:102F600020E030E24BE456EC0E94B11E882364F46A
:102F700088E39DECAFEFBFEF80935601909357012C
:102F8000A0935801B0935901609156017091570177
:102F900080915801909159010E94B71E20E03CEBAE
:102FA00041EB58E40E94161F181664F480EE9DE869
:102FB000A5E0B0E08093560190935701A09358018B
:102FC000B093590180914B0181FF04C0809166014B
:102FD0008093E20480914A0180FF01C220914C015C
:102FE0002C3109F480C02D3190F4243009F449C00B
:102FF000253030F4222309F1213009F0E8C13EC028
:10300000243109F462C0253109F0E1C162C02B35D9
:1030100009F40CC12C3538F42E3109F460C02A357E
:1030200009F0D5C1FFC0213A09F4AFC1223A09F431
:10303000BDC12C3509F0CBC1FDC0E0905E01F09020
:103040005F01009160011091610186E890E0A0E0CD
:10305000B0E080935E0190935F01A0936001B09314
:1030600061018EE491E00E94F908E0925E01F09225
:103070005F010093600110936101A9C38EE491E0A8
:103080008DC00E945E081AC00E94A10680915A0459
:103090008E7F80935A0480915A0480FDF5CF61E0C1
:1030A00070E080E090E00E9463068091640190915E
:1030B000650101979093650180936401809164019B
:1030C00090916501892B39F782C380914B0180680B
:1030D00003C080914B018F7780934B0178C38EE4BE
:1030E00091E00E94F9080E945E0880914A0182FDE9
:1030F00002C090E01AC0DE011196EEE1F4E084E136
:1031000001900D928150E1F719821A821B821C8274
:1031100080EA90E0A0E0B0E0898B9A8BAB8BBC8B0F
:10312000CE0101960E94F90891E080914A0183FF47
:103130001AC0DE011196EEE1F4E084E101900D92F7
:103140008150E1F71D821E821F82188680EA90E07E
:10315000A0E0B0E0898B9A8BAB8BBC8BCE01019643
:103160000E94F90891E080914A0184FF1AC0DE01B3
:103170001196EEE1F4E084E101900D928150E1F7C7
:1031800019861A861B861C8683E290E0A0E0B0E0D8
:10319000898B9A8BAB8BBC8BCE0101960E94F90870
:1031A00016C3992309F013C3DE011196EEE1F4E092
:1031B00084E101900D928150E1F719821A821B82FD
:1031C0001C8280EA90E0A0E0B0E0898B9A8BAB8B08
:1031D000BC8B8E010F5F1F4FC8010E94F908D801F8
:1031E000EEE1F4E084E101900D928150E1F71D825F
:1031F0001E821F82188680EA90E0A0E0B0E0898BF2
:103200009A8BAB8BBC8B8E010F5F1F4FC8010E9446
:10321000F908D801EEE1F4E084E101900D928150CB
:10322000E1F7AECF80914B018F7B56CF80914B0160
:10323000806452CF0E945E0880914A0182FD02C0E4
:1032400090E019C080914E0190914F01A0915001E2
:10325000B09151018093320490933304A0933404CD
:10326000B093350480931E0490931F04A093200410
:10327000B093210491E080914A0183FF19C08091AD
:10328000520190915301A0915401B0915501809346
:10329000360490933704A0933804B0933904809394
:1032A000220490932304A0932404B093250491E076
:1032B00080914A0184FF19C0809156019091570175
:1032C000A0915801B091590180933A0490933B0426
:1032D000A0933C04B0933D0480932604909327046C
:1032E000A0932804B093290491E080914A0185FDC0
:1032F0006EC2992309F06BC21092560110925701C9
:10330000109258011092590110923A0410923B0405
:1033100010923C0410923D0410922604109227044F
:103320001092280410922904109252011092530115
:1033300010925401109255011092360410923704E5
:10334000109238041092390410922204109223042F
:10335000109224041092250410924E0110924F01F5
:1033600010925001109251011092320410923304C5
:10337000109234041092350410921E0410921F040F
:10338000109220041092210422C282FF02C00E94E7
:10339000031C80914A0183FF02C00E94FD1B8091A3
:1033A0004A0184FF14C20E94F71B11C282FF02C0AF
:1033B0000E94001C80914A0183FF02C00E94FA1BF8
:1033C00080914A0184FF03C20E94F41B00C200D016
:1033D00000D0EDB7FEB731968BEF91E0EAC181FFE7
:1033E000F6C120914D012E3609F4F1C12F3688F532
:1033F000253609F46DC02636B0F4253009F4E7C14E
:10340000263038F4223009F455C0233009F0CAC1FF
:103410005FC0273009F472C0273008F454C0293047
:1034200009F0C0C16FC0293609F461C02A3638F4EA
:10343000273609F4CCC1283609F0B4C14FC02B3669
:1034400009F460C02B3608F459C02D3609F0AAC122
:103450005FC0243809F459C12538B0F4233709F482
:1034600007C1243738F4203709F46EC0223709F039
:1034700099C16FC0223809F426C1233808F034C13D
:10348000243709F08FC11CC1273809F463C12838DB
:1034900038F4253809F44AC1263809F083C157C1E8
:1034A0002E3B09F473C12F3B09F477C12C3809F086
:1034B00079C15BC10E940D070E944708179A0F9AB5
:1034C0000E94F111FFCF8091E2048093E3047FC159
:1034D0000E94F411882309F07AC1F2C06091620160
:1034E00070916301809164019091650144C1809164
:1034F0006401909165010E94211269C182E090E00F
:103500006FEF03C082E090E060E00E94FF135FC1B4
:1035100060916201709163018091640190916501F5
:103520000E9408128091620190916301892B31F011
:103530005F98579A80E090E060E403C080E090E0FC
:1035400060E00E94FF13BCC00E940D070E94470864
:1035500026C1EDB7FEB776970FB6F894FEBF0FBE43
:10356000EDBF0DB71EB70F5F1F4F8DED91E092833A
:10357000818360913204709133048091340490917E
:10358000350428EE33E040E050E00E941A1F20E8A6
:103590003CE040E050E00E94391FD80112962D9384
:1035A0003D934D935C931597609136047091370469
:1035B000809138049091390428EE33E040E050E0E7
:1035C0000E941A1F20E83CE040E050E00E94391FB2
:1035D000F801268337834087518760913A047091C0
:1035E0003B0480913C0490913D0428EE33E040E0A0
:1035F00050E00E941A1F28E23AE040E050E00E94AA
:10360000391FD8011A962D933D934D935C931D97C6
:1036100060913E0470913F04809140049091410478
:1036200028EE33E040E050E00E941A1F2CE830E022
:1036300040E050E00E94391FF80126873787408B11
:10364000518B8091420490914304A0914404B09125
:103650004504828B938BA48BB58B0E948B058DB711
:103660009EB746960FB6F8949EBF0FBE8DBFAFC0F3
:10367000ADB7BEB718970FB6F894BEBF0FBEADBFBB
:10368000EDB7FEB731968DE291E012969C938E9342
:10369000119781E090E09383828382E090E09583AC
:1036A000848383E090E0978386830E948B05EDB747
:1036B000FEB738960FB6F894FEBF0FBEEDBF87C0B9
:1036C00080E090E06BCD87FF82C040916201509115
:1036D0006301662757FD6095762F80916401909174
:1036E00065010E942F1573C087FF71C04091620170
:1036F00050916301662757FD6095762F8091640194
:10370000909165010E94431562C087FF60C040919F
:10371000620150916301662757FD6095762F809175
:103720006401909165010E94571551C087FF4FC0F9
:103730004091620150916301662757FD6095762F95
:1037400080916401909165010E946B1540C00E94B8
:103750007D153DC087FF3BC080916401909165015C
:10376000609162010E94FF130EC06091620170912E
:10377000630181E090E00E940812809162019091C3
:103780006301892B21F15F98579A21C05F98579A5E
:1037900017980F9A10925D041AC0179A0F9A0E94F8
:1037A000F11115C000D000D0EDB7FEB731968CE115
:1037B00091E0ADB7BEB712969C938E93119722837A
:1037C00013820E948B050F900F900F900F906496BC
:1037D0000FB6F894DEBF0FBECDBFCF91DF911F9122
:1037E0000F91FF90EF9008950E945E0808950E9447
:1037F0005E0808950E945E0808950E945E0808957C
:103800000E945E0808950E945E080895CF92DF929C
:10381000EF92FF920F931F937B018C01C42EE5E47E
:10382000F1E029E080819181A281B381E816F90657
:103830000A071B0720F421503497222399F7D22E30
:103840002C1508F4DC2CED2DF0E0EE0FFF1FEE0F31
:10385000FF1FEF5DFE4F208131814281538160E087
:1038600088279927DC01821B930BA40BB50B05C09D
:10387000E80EF91E0A1F1B1F6F5FE216F30604070E
:103880001507B0F7862F805D0E946F1EDC1419F4B7
:103890008EE20E946F1EDD2011F0DA94D4CF1F91CA
:1038A0000F91FF90EF90DF90CF900895DF92EF920D
:1038B000FF920F931F937B018C01D42E97FF0BC0B7
:1038C0008DE20E946F1E10950095F094E094E11C2B
:1038D000F11C011D111DC801B7014D2D0E94061CD0
:1038E0001F910F91FF90EF90DF900895DF92EF927C
:1038F000FF920F931F937B018C01E5E4F1E029E037
:10390000D22E80819181A281B381E816F9060A073F
:103910001B0720F4DA943497DD2099F7ED2DF0E0C1
:10392000EE0FFF1FEE0FFF1FEF5DFE4F2081318175
:103930004281538160E088279927DC01821B930B29
:10394000A40BB50B05C0E80EF91E0A1F1B1F6F5F05
:10395000E216F30604071507B0F7862F805D0E9474
:103960006F1EDD2011F0DA94D9CF1F910F91FF90D7
:10397000EF90DF900895EF92FF920F931F937B01DA
:103980008C0197FF0BC08DE20E946F1E1095009571
:10399000F094E094E11CF11C011D111DC801B70158
:1039A0000E94761C1F910F91FF90EF9008958F70E9
:1039B0008A3010F4805D01C0895C0E946F1E0895FA
:1039C0001F93182F82958F700E94D71C812F8F70A4
:1039D0000E94D71C1F9108951F93182F892F0E94B2
:1039E000E01C812F0E94E01C1F910895EF92FF922E
:1039F0000F931F937B018C01AA27BB270E94EC1C0D
:103A0000C7010E94EC1C1F910F91FF90EF90089549
:103A1000E4E6F0E080818E7F808380E480937C0008
:103A2000EAE7F0E087E8808310925E0481B1897F45
:103A300081B986E080937E008081886480830895C8
:103A400078941F920F920FB60F9211242F934F93D9
:103A50005F938F939F93EF93FF93E0917C00F0E04F
:103A6000EF70F0708091780090917900EE0FFF1F59
:103A7000EA5BFB4F9183808320915E0446E050E037
:103A80002F5F2770CA01022E02C0959587950A9470
:103A9000E2F780FFF5CF20935E04206420937C0042
:103AA00080917A00806480937A00FF91EF919F91DA
:103AB0008F915F914F912F910F900FBE0F901F909C
:103AC0001895E82F8FB7F894F0E0EE0FFF1FEA5B30
:103AD000FB4F208131818FBFC9010895FC0120E097
:103AE00030E01AC081912827822F82958227082EE4
:103AF000869586958025082E869580258770022ECE
:103B0000232F869507948795302D2827069487952F
:103B100030252827615070406115710519F7C901DA
:103B2000089582E08093C00084E190E09093C50006
:103B30008093C400E1ECF0E088E1808386E080932C
:103B4000C2008081806A808308951F920F920FB611
:103B50000F9211242F938F939F93EF93FF93809154
:103B6000600420915F0490E00197821B91098F739C
:103B70009070892B79F0E0915F04F0E08091C600AD
:103B8000EC51FB4F808380915F048F5F8F73809334
:103B90005F0402C08091C6008091050182FF14C0BD
:103BA0008091600420915F0490E00197821B91094D
:103BB0008F739070419744F486E080930501809163
:103BC000C10080628093C100FF91EF919F918F911E
:103BD0002F910F900FBE0F901F9018951F920F926C
:103BE0000FB60F9211242F938F939F93EF93FF9310
:103BF0008091050180FF07C081E18093C60084E0C9
:103C00008093050129C08091050181FF06C083E1F1
:103C10008093C600109205011FC08091610420911D
:103C2000620490E0821B91098F739070892B79F068
:103C3000E0916204F0E0EC5DFA4F80818093C60071
:103C4000809162048F5F8F738093620405C08091BE
:103C5000C1008F7D8093C100FF91EF919F918F9163
:103C60002F910F900FBE0F901F90189580915F04B9
:103C700090916004891B8F73089580915F04209157
:103C8000600490E0821B91098F739070892B11F46E
:103C9000E0E00CC0E0916004F0E0EC51FB4FE0810B
:103CA000809160048F5F8F73809360048091050121
:103CB00082FD13C080915F042091600490E0821B1C
:103CC00091098F739070419744F481E080930501CE
:103CD0008091C10080628093C1008E2F0895382F9B
:103CE0000FB607FE0DC0809162042091610490E040
:103CF0000197821B91098F739070892BA1F30CC0DF
:103D0000809162042091610490E00197821B9109E7
:103D10008F739070892B61F0E0916104F0E0EC5DAD
:103D2000FA4F3083809161048F5F8F7380936104B9
:103D30008091C10080628093C10008951F93CF934A
:103D4000DF93EC0110E002C00E946F1EFE01E10F44
:103D5000F11D1F5F84918823B9F7DF91CF911F91E7
:103D6000089540D008F481E00895E89409C097FBD5
:103D70003EF490958095709561957F4F8F4F9F4F42
:103D80009923A9F0F92F96E9BB279395F695879586
:103D900077956795B795F111F8CFFAF4BB0F11F449
:103DA00060FF1BC06F5F7F4F8F4F9F4F16C08823F0
:103DB00011F096E911C0772321F09EE8872F762F26
:103DC00005C0662371F096E8862F70E060E02AF067
:103DD0009A95660F771F881FDAF7880F9695879553
:103DE00097F90895990F0008550FAA0BE0E8FEEF28
:103DF00016161706E807F907C0F012161306E407AF
:103E0000F50798F0621B730B840B950B39F40A26A7
:103E100061F0232B242B252B21F408950A2609F485
:103E2000A140A6958FEF811D811D0895DBDF08F469
:103E30008FEF0895629FD001739FF001829FE00D84
:103E4000F11D649FE00DF11D929FF00D839FF00D19
:103E5000749FF00D659FF00D9927729FB00DE11DC5
:103E6000F91F639FB00DE11DF91FBD01CF011124A2
:103E70000895A1E21A2EAA1BBB1BFD010DC0AA1FAB
:103E8000BB1FEE1FFF1FA217B307E407F50720F0C3
:103E9000A21BB30BE40BF50B661F771F881F991F3E
:103EA0001A9469F760957095809590959B01AC0187
:103EB000BD01CF01089597FB092E05260ED057FDB1
:103EC00004D0D7DF0AD0001C38F4509540953095C7
:103ED00021953F4F4F4F5F4F0895F6F7909580958E
:103EE000709561957F4F8F4F9F4F0895A6E1B0E089
:103EF00044E050E00C94911FA8E1B0E042E050E0B3
:103F00000C94911F242F0E94A01F252F0E94A01FF8
:103F10000C948A1F0E949F1F272F0C94A01FDC0166
:103F2000CB01FC01F999FECF06C0F2BDE1BDF89AC4
:103F3000319600B40D9241505040B8F70895262FA5
:103F4000F999FECF1FBA92BD81BD20BD0FB6F8947E
:0E3F5000FA9AF99A0FBE01960895F894FFCFE1
:103F5E0030780000010100000100000000000201A5
:103F6E000000250004480025000347002200000041
:103F7E0000010000000A00000064000000E80300D9
:103F8E000010270000A086010040420F0080969886
:0A3F9E000000E1F50500CA9A3B009F
:00000001FF
